:020000040800F2
:1000000000000220C54B0008DD440008DF44000862
:10001000E1440008E3440008E54400080000000053
:100020000000000000000000000000008135000812
:10003000E74400080000000011360008E944000809
:10004000154C0008154C0008154C0008154C00080C
:10005000154C0008154C0008154C0008154C0008FC
:10006000154C0008154C0008154C0008154C0008EC
:10007000154C0008154C0008154C0008154C0008DC
:10008000154C0008154C0008154C00080D450008DB
:100090000945000805450008F9440008154C00080A
:1000A000154C0008154C0008154C0008154C0008AC
:1000B000154C0008154C0008154C0008154C00089C
:1000C000154C0008154C0008154C0008154C00088C
:1000D000154C0008114500081D450008154C000886
:1000E000154C0008154C0008154C0008154C00086C
:1000F000154C0008154C0008154C0008154C00085C
:10010000154C0008154C0008154C0008154C00084B
:10011000154C0008154C0008154C0008154C00083B
:10012000154C0008154C0008154C0008154C00082B
:10013000154C0008154C0008154C00083D450008FA
:1001400039450008354500082945000841450008A3
:10015000154C0008154C0008154C0008154C0008FB
:10016000154C0008154C0008154C0008154C0008EB
:10017000154C0008154C0008154C00080000000044
:08018000154C0008154C0008A5
:1001900010B5054C237833B9044B13B10448AFF3C1
:1001A00000800123237010BDE40100200000000046
:1001B000545B000808B5034B1BB103490348AFF378
:1001C000008008BD00000000E8010020545B00082A
:1001D00001F0FF01102A2BDB10F0070F08D010F8F8
:1001E000013B013A8B422DD010F0070F42B3F6D1FC
:1001F000F0B441EA012141EA014122F007047FF015
:1002000000070023F0E80256083C85EA010586EA6B
:10021000010685FA47F5A3FA87F586FA47F6A5FAA7
:1002200087F68EB9EED1F0BC01F0FF0102F00702B3
:1002300032B110F8013B013A83EA010313B1F8D15E
:100240000020704701387047002D06BF354603383F
:10025000073815F0010F07D1013015F4807F02BF78
:10026000013015F4C03F0130F0BC0138704700BFC9
:1002700053B94AB9002908BF00281CBF4FF0FF310D
:100280004FF0FF3000F07AB9ADF1080C6DE904CE03
:1002900000F006F8DDF804E0DDE9022304B0704761
:1002A0002DE9F0478C460D460446089E002B51D19F
:1002B0008A4217466DD9B2FA82FEBEF1000F0BD00A
:1002C000CEF1200C01FA0EF520FA0CFC02FA0EF722
:1002D0004CEA050C00FA0EF44FEA174A250CBCFB59
:1002E000FAF81FFA87F90AFB18CC45EA0C4508FB17
:1002F00009F3AB420AD9ED1908F1FF3280F02381EE
:10030000AB4240F22081A8F102083D44ED1AA4B2AC
:10031000B5FBFAF00AFB105544EA054400FB09F965
:10032000A14509D9E41900F1FF3380F00A81A14504
:1003300040F2078102383C44A4EB090440EA08403B
:100340000021002E61D024FA0EF400233460736083
:10035000BDE8F0878B4207D9002E54D0002186E8F3
:1003600021000846BDE8F087B3FA83F1002940F088
:100370008E80AB4202D3824200F2FA80841A65EB8F
:1003800003050120AC46002E3FD086E81010BDE8E2
:10039000F08712B90127B7FBF2F7B7FA87FEBEF173
:1003A000000F34D1EB1B3A0C1FFA87FC0121B3FB81
:1003B000F2F8250C02FB183345EA03450CFB08F361
:1003C000AB4207D9ED1908F1FF3002D2AB4200F27F
:1003D000D1808046ED1AA3B2B5FBF2F002FB1055B6
:1003E00043EA05440CFB00FCA44507D9E41900F1DD
:1003F000FF3302D2A44500F2B8801846A4EB0C04E7
:1004000040EA08409DE731463046BDE8F087CEF12E
:10041000200405FA0EF307FA0EF720FA04F83A0C56
:1004200025FA04F448EA0308B4FBF2F14FEA184550
:1004300002FB11441FFA87FC45EA044501FB0CF35B
:10044000AB4200FA0EF409D9ED1901F1FF3080F04A
:100450008A80AB4240F2878002393D44EB1A1FFA92
:1004600088F5B3FBF2F002FB103345EA034500FBCD
:100470000CF3AB4207D9ED1900F1FF386FD2AB4254
:100480006DD902383D44EB1A40EA01418FE7C1F1D2
:10049000200722FA07F88B4005FA01F448EA030323
:1004A00020FA07FE4FEA134CFD404EEA040EB5FB5E
:1004B000FCF94FEA1E440CFB19551FFA83F844EA75
:1004C000054509FB08F4AC4202FA01F200FA01FA10
:1004D00008D9ED1809F1FF3043D2AC4241D9A9F156
:1004E00002091D442D1B1FFA8EFEB5FBFCF00CFB10
:1004F00010554EEA054400FB08F8A04507D9E4185A
:1005000000F1FF3529D2A04527D902381C4440EA22
:100510000940A4EB0804A0FB02894C45C6464D46A1
:1005200015D312D056B1BAEB0E0364EB050404FAEE
:1005300007F7CB401F43CC40376074600021BDE813
:10054000F0871846F8E69046E0E6C245EAD2B8EBF6
:10055000020E69EB03050138E4E72846D7E7404679
:1005600091E78146BEE7014678E702383C4445E71B
:10057000084608E7A8F102083D442BE7704700BF92
:1005800038B50E4A0E4B054618784FF47A73B3FB14
:10059000F0F31068B0FBF3F000F030FA044658B9FD
:1005A0000F2D09D8024629464FF0FF3000F0E4F93C
:1005B000044B20461D6038BD012038BD1C010020C1
:1005C000000000200400002008B50B4B1A6842F41C
:1005D00000721A601A6842F480621A601A6842F463
:1005E00080721A60032000F0B5F90F20FFF7C8FFF2
:1005F00003F052FF002008BD003C0240034A044BB8
:1006000011681B780B441360704700BFAC41002099
:1006100000000020014B1868704700BFAC4100206B
:1006200038B50446FFF7F6FF631C1CBF054B1B786B
:10063000054618BFE418FFF7EDFF401B8442FAD8C7
:1006400038BD00BF0000002038B5044600286ED039
:1006500090F820300BB903F065FD2268136823F091
:1006600002031360FFF7D6FF054623685A68910717
:1006700051D41A6842F001021A60FFF7CBFF054619
:1006800023685A68D20754D5227E012A1A680CBF03
:1006900042F0800222F080021A60627E012A1A680B
:1006A0000CBF42F0400222F040021A60A27E012AF2
:1006B0001A680CBF42F0200222F020021A60E27E8B
:1006C000012A1A680CBF22F0100242F010021A60D0
:1006D000227F012A1A680CBF42F0080222F00802A9
:1006E0001A60627F012A1A680CBF42F0040222F0ED
:1006F00004021A60E168A2680A4321690A43616939
:100700000A43616801390A43DA610020012360620B
:1007100084F8203038BDFFF77DFF401B0A28A4D99C
:10072000636A43F400336362052384F820300120B8
:1007300038BDFFF76FFF401B0A28A1D9F0E77047CB
:1007400070477047704770477047704770477047F1
:1007500070477047704770472DE9F84F03685E692E
:10076000D3F804909F68D3F80CB0D3F810A0D3F856
:10077000188016F00104054622D017F0010407D0B6
:100780000122B9079A6040F1A380FFF7D8FF002447
:10079000FB0509D52B684FF48072B8059A6040F1CB
:1007A000A5802846FFF7CCFFFB0309D52B684FF443
:1007B0008032B8039A6040F1A7802846FFF7C1FF56
:1007C000330707D51BF0100F1FBF2B68102244F40E
:1007D0000074DA60770708D51BF0080F05D02B6886
:1007E0000822DA602846FFF7B1FFB00706D52B686C
:1007F000DB68990702D02846FFF7A7FF720607D5E6
:100800001AF0100F1FBF2B68102244F480641A6185
:10081000B30608D51AF0080F05D02B6808221A6114
:100820002846FFF795FFF70606D52B681B69980742
:1008300002D02846FFF78BFFB10308D519F0100F3F
:1008400005D02B6810225A602846FFF782FFF2037A
:1008500008D519F0080F05D02B6808225A602846E1
:10086000FFF778FF33042AD519F0040F2A6824D043
:10087000F70504D518F0010F18BF44F00104B005C6
:1008800004D518F0020F18BF44F00204710504D516
:1008900018F0040F18BF44F0040433050DD518F008
:1008A00070030AD0302B4CD03CD8102B43D0202BD7
:1008B00044D0936923F070039361042353602CB1F7
:1008C0006B6A1C436C622846FFF745FFBDE8F88F52
:1008D0007A0705D417F0080405D1FFF733FF57E76F
:1008E0004FF4006454E74FF4805451E7790502D582
:1008F00044F4005458E73A0502D544F4804453E7E1
:100900002846FFF720FF4FE7790302D544F400445F
:1009100056E73A0302D544F4803451E72846FFF7FE
:1009200013FF4DE7502B0FD0602B10D0402BC0D1C0
:1009300044F04004BDE744F00804BAE744F0100472
:10094000B7E744F02004B4E744F08004B1E744F48E
:100950008074AEE7074AD36823F4E0631B041B0CE2
:1009600043F0BF63000243F4003300F4E06003434C
:10097000D360704700ED00E0174B30B5DC68C4F37E
:100980000224C4F10703251D042B28BF0423062DD0
:100990004FF0010505FA03F303F1FF338CBF033C6D
:1009A00000241940A14005FA04F4013C224000282B
:1009B00042EA01024FEA0212ADBF00F1604000F0CE
:1009C0000F00064B00F56140B5BFD2B2D2B21A5447
:1009D00080F8002330BD00BF00ED00E014ED00E022
:1009E000002808DB4209012300F01F0003FA00F091
:1009F000014B43F82200704700E100E00138B0F1FC
:100A0000807F0AD2064B074A5860F02182F82310F3
:100A10000020072298601A6070470120704700BFCD
:100A200010E000E000ED00E090F83530022B03D03C
:100A300080234365012070470268052380F8353024
:100A4000136823F001031360002070472DE9F04F75
:100A500085B00B68DFF8AC81684ADFF8AC91019390
:100A600000234FF0010E019C0EFA03FE0EEA04066D
:100A7000B64540F0AE804C6824F01007022F16D126
:100A80004FEAD30A00EB8A0A03F0070BDAF820508A
:100A90004FEA8B0B4FF00F0C0CFA0BFC25EA0C0CF9
:100AA0000D6905FA0BF545EA0C05CAF820504FEA26
:100AB000430A0325D0F800B005FA0AF5ED4304F027
:100AC000030C0BEA050B0CFA0AFC013F4CEA0B0C79
:100AD000012FC0F800C011D8876807EA050BCF685E
:100AE00007FA0AFC4CEA0B078760476827EA0E0EF4
:100AF000C4F300179F4047EA0E074760C7683D40B0
:100B00008F6807FA0AF73D43C560E50061D54FF0ED
:100B1000000BCDF80CB0D8F84470394D47F480473D
:100B2000C8F84470D8F8447007F480470397039FCF
:100B300023F0030707F1804707F59C3703F0030C08
:100B4000D7F808A04FEA8C0C4FF00F0E0EFA0CFEEF
:100B5000A8422AEA0E0E43D005F58065A84241D08E
:100B600005F58065A8423FD005F58065A8423DD0D7
:100B700005F58065A8423BD048453BD005F50065AA
:100B8000A84239D005F58065A84214BF082507257D
:100B900005FA0CF545EA0E05BD601568F74314F437
:100BA000803F0CBF3D4035431560556814F4003F4D
:100BB0000CBF3D4035435560956814F4801F0CBF51
:100BC0003D4035439560D568A40254BF3D40354350
:100BD000D5600133102B7FF444AF05B0BDE8F08F32
:100BE0005D46D5E70125D3E70225D1E70325CFE709
:100BF0000425CDE70525CBE70625C9E7003C0140E4
:100C00000000024000380240001402400AB1816135
:100C100070470904FBE7F0B504468BB060B390F869
:100C2000BD33056803F0FF021BB980F8BC2303F055
:100C3000FDFD032384F8BD33EB6B254613F480736D
:100C400055F8100B08BF236101F09EFA0FCD6E46D8
:100C50000FC60FCD0FC695E8030086E803002546B2
:100C6000271D97E80E0055F8100B01F0D3F9064642
:100C700020B1022384F8BD33012550E001462068ED
:100C800001F088FA3046D4F804E01C264FF0010C3D
:100C90000146C2B2964500F101001CD800231C2673
:100CA0001946D8B2864503F1010322D80FCD6E460E
:100CB0000FC60FCD0FC695E8030086E8030097E83E
:100CC0000E00206801F0A8FA0123054600B30222B5
:100CD00084F8BD23D0E706FB024383F83DC083F8C8
:100CE0003C20A3F8422083F83F10596499641965A9
:100CF000CFE706FB004282F8FD1182F8FC0182F882
:100D0000FF11C2F80412C2F80812C2F81012C8E7A4
:100D100084F8380084F8BD33206801F0CFFD284600
:100D20000BB0F0BD90F8BC33012B10B5044616D0C3
:100D30000123006884F8BC33A36A012B06D1A369A0
:100D4000012B1EBF836B43F48033836301F0AAFD44
:100D5000206801F013FA002084F8BC0310BD0220C3
:100D600010BD00002DE9F04F066887B004463046FC
:100D700001F0DFFD0290002840F02281206801F0A0
:100D8000A9FD002800F01C81206801F0A3FD830765
:100D900048BF2268206842BF536903F002035361D1
:100DA00001F098FD070300F10E81206801F092FD2B
:100DB00045030CD5206801F099FD2546834606F5CC
:100DC000106A4FF00009BBF1000F40F0BC812068B1
:100DD00001F080FD002815DAD6F8043823F001036D
:100DE000C6F8043894F8F433012B40F04182002116
:100DF00084F8F413204600F0BFFB2268536903F027
:100E000000435361206801F065FD00050BD5D6F85D
:100E10000838D90702D5204603F078FD22685369C7
:100E200003F400635361206801F054FDC20435D51A
:100E300006F500656B68206823F001036B601021E4
:100E400001F0C0F9606806F510634FF67F31029A31
:100E5000824240F01182EB6943F00113EB61236B96
:100E6000002B00F01B82D5F8843043F00B03C5F84B
:100E700084306B6C43F00B036B64D6F80038217C34
:100E8000206823F4FE63C6F8003804F5717201F09F
:100E90006FFD2268536903F480535361206801F0A9
:100EA00019FD830416D5206801F047FD206801F084
:100EB00077FAE060256800F0ABFD227B014628460A
:100EC00001F0E8F8204603F00EFD2268536903F4B0
:100ED00000535361206801F0FDFCC7062AD5226843
:100EE000936923F010039361356AC5F34343022BE2
:100EF00005F00F0740F0DD8147F6F0731D4214D076
:100F00001C2303FB0747C5F30A152A46D7F8081226
:100F1000304601F051FCD7F808322B44C7F80832AC
:100F2000D7F814321D44C7F814522268936943F06D
:100F300010039361206801F0CDFC060707D5204619
:100F400003F0CDFC2268536903F008035361206865
:100F500001F0C0FCC50208D50021204603F0F6FCD4
:100F60002268536903F480135361206801F0B2FCD6
:100F7000800208D50021204603F0E4FC2268536972
:100F800003F400135361206801F0A4FC410007D56D
:100F9000204603F0DFFC2268536903F0804353616D
:100FA000206801F097FC42070AD523685D686B074B
:100FB00002D5204603F0D2FC23685A6815435D60D1
:100FC00007B0BDE8F08F2068DFF808B301F086FCB9
:100FD00006F530658246A0460027BAF1000F3FF4BF
:100FE000E4AE1AF0010F00F0A780FAB211462068B3
:100FF000039201F083FC10F0010F8146039A4CD05C
:101000000123AB6023682069D3F840E003F5306327
:1010100003EB47130128996854D1080714D5DE451E
:1010200004D90A0444BF4FF400429A602046039357
:1010300003F03EFC04F571720121206801F098FC78
:10104000039B08229A6028E0880601D52022F9E750
:1010500011F0280F21D1DE4504D9090402D54FF43F
:101060000042EFE71B69D8F80412C3F31203CB1A4E
:10107000C8F81432D8F808321944C8F808122046C3
:10108000114603F01BFC47B9D4F810322BB904F514
:1010900071720121206801F06BFC19F0080F33D048
:1010A000236820691A6C03F5306303EB47130128AA
:1010B000996815D15A4516D9090444BF4FF4004127
:1010C000996010E08248864505D10804C7D4880697
:1010D00044BF202199601146204603F0EFFBDCE776
:1010E0007B488242E8D02046039203F0E1FB039A5A
:1010F0005A4507D92169012904D104F57172206884
:1011000001F036FC0823AB6019F0100F1CBF102350
:10111000AB6019F0200F09D02169012904D104F531
:101120007172206801F024FC2023AB6019F4005F89
:101130001CBF4FF40053AB6001374FEA5A0A203509
:1011400008F11C0849E71BF0010F00F089805FFAE5
:1011500089F319462068039301F0D9FBC3070746BA
:1011600024D5D6F834380399012009F00F0200FA8B
:1011700002F223EA0203C6F834382369CAF80800E9
:10118000834201BFAB6C6A6C9B18AB64204603F0D2
:101190009EFB2169012909D1B9F1000F06D1236D08
:1011A00023B904F57172206801F0E2FB380744BFEF
:1011B0000823CAF80830F90644BF1023CAF80830DB
:1011C0007A0644BF4023CAF80830BB0744BF022355
:1011D000CAF808303F0643D56B6D2F6DBB423FD830
:1011E000FF1A6B6C226804929F4228BF1F4602F5CB
:1011F0001063033703EB4913BF080593059B6A6D22
:101200009B699BB2BB422B6D28D3934226D963B90D
:10121000049B09F00F01D3F83428012000FA01F1F2
:1012200022EA0102C3F834281AE0A3EB02086B6C2F
:10123000039A0498984528BF9846237C0093A96C8C
:101240001FFA88F301F0B6F9AB6C4344AB646B6DE5
:1012500008F103074344BF086B65CFE79342D7D932
:1012600009F101094FEA5B0B1C350AF1200AAAE5D6
:10127000204603F063FBC0E599601A6822F400126F
:101280001A60C3F80812D3F8002222F40012C3F83F
:101290000022029A013202922033D8E56B6943F4AE
:1012A000005343F02B036B612B6943F00B032B615D
:1012B000E3E5062B7FF439AE082204F57171304660
:1012C00001F07AFA1C2303FB0747C5F30A1527E64A
:1012D0000A31544F0A30544F90F8BC23012A10B5FC
:1012E00004460BD0012280F8BC2384F83810006833
:1012F00001F0C8FA002084F8BC0310BD022010BD24
:1013000070B5044601F00F0011F0800F4FF01C067D
:10131000C5B206FB054115BF06FB054506FB0545A5
:101320003C3101F5FE7115BF0126002685F83D60B0
:1013300085F8FD618A604A78CB70C0B2087002B14E
:10134000C880022B04BF00230B7194F8BC33012B1F
:1013500009D0012384F8BC33206801F02CF8002068
:1013600084F8BC0370BD022070BD01F00F03DAB237
:1013700010B504461C2011F0800F00FB024119BF7C
:101380003C3100FB024200FB024201F5FE7115BF39
:101390000120002082F83D0082F8FD010B7094F8D6
:1013A000BC33012B09D0012384F8BC33206801F041
:1013B00045F8002084F8BC0310BD022010BD38B5EC
:1013C00001F00F051C2404FB050104FB050401F5D5
:1013D000FE71C4F810320023C4F80822C4F8143295
:1013E00084F8FD3184F8FC5103690068012B08BFC3
:1013F000C4F80C22DAB21DB901F052F8002038BD51
:1014000001F0ECF8FAE71C2301F00F0103FB0101E6
:10141000D1F81402704738B501F00F051C2404FB05
:10142000050104FB05043C312365002363650123AA
:10143000A26484F83D3084F83C5003690068012BB5
:1014400008BFE264DAB21DB901F02AF8002038BD05
:1014500001F0C4F8FAE738B5436801F00F059D4282
:1014600004462ED811F0800F4FF01C021FD002FB53
:10147000050102FB050301223C3381F83D200122D6
:101480009A701D7094F8BC1391421CD084F8BC2350
:101490001946206801F09EF92DB904F57172217C7E
:1014A000206801F065FA002084F8BC0338BD02FB17
:1014B000010302FB0101002203F5FE7381F8FD2107
:1014C000DDE7012038BD022038BD38B5436801F0A2
:1014D0000F029A42044626D81C2311F0800F03FB0A
:1014E000020119BF3C3103FB020301F5FE7103FB4E
:1014F000024314BF012000204FF0000514BF83F801
:101500003D0083F8FD018D700A7094F8BC33012B07
:101510000BD0012384F8BC33206801F088F984F8EB
:10152000BC53284638BD012038BD022038BD70B5F7
:101530000468636A21B943EA0243A362002070BDD4
:10154000A06A4D1E03EB10430020461CC0B285422A
:1015500006D83F3104EB810443EA02436360EDE7C0
:10156000403004EB8000406803EB10433046ECE76A
:101570000368002059627047704700002DE9F3416D
:10158000044618B9012002B0BDE8F0810368DD0708
:1015900010D42368980758D423681A0700F19A805A
:1015A00023685B0700F1B880A269002A40F0198126
:1015B0000020E8E7A64B9A6802F00C02042A07D044
:1015C0009A6802F00C02082A0AD15B68590207D512
:1015D0009F4B1B689A03DCD56368002BD9D1D1E7F8
:1015E00063689B4DB3F5803F11D12B6843F4803382
:1015F0002B60FFF70FF8964D06462B689B03C8D467
:10160000FFF708F8801B6428F7D90320BBE7B3F580
:10161000A02F04D12B6843F480232B60E5E72A68D0
:1016200022F480322A602A6822F480222A60002B69
:10163000DFD1FEF7EFFF06462B689F03A9D5FEF723
:10164000E9FF801B6428F7D9DFE7814B9A6812F025
:101650000C0F07D09A6802F00C02082A11D15B68BF
:101660005E020ED47A4B1A68950702D5E268012A09
:1016700088D11A68216922F0F80242EAC1021A6090
:101680008AE7E268734BB2B101221A60FEF7C2FF2B
:101690006F4D06462B68980707D52B68226923F003
:1016A000F80343EAC2032B6076E7FEF7B3FF801B23
:1016B0000228EFD9A9E71A60FEF7ACFF644D064691
:1016C0002B6899077FF568AFFEF7A4FF801B0228FF
:1016D000F6D99AE76269604B7AB101221A60FEF787
:1016E00099FF5B4D06466B6F9F073FF559AFFEF7BD
:1016F00091FF801B0228F6D987E71A60FEF78AFF60
:10170000534D06466B6F98077FF54AAFFEF782FF91
:10171000801B0228F6D978E74D4B1A6C12F08052E4
:1017200028D101921A6C42F080521A641B6C03F0AB
:1017300080530193019B0126484D2B68D9051BD589
:10174000A368434D012B27D12B6F43F001032B6777
:10175000FEF760FF3E4D074641F288382B6F9B072E
:1017600039D5002E3FF420AF394A136C23F0805353
:10177000136419E70026DFE72B6843F480732B60BE
:10178000FEF748FF07462B68DA05D9D4FEF742FF7B
:10179000C01B0228F7D938E7052B04D12B6F43F083
:1017A00004032B67D0E72A6F22F001022A672A6F11
:1017B00022F004022A67002BCAD1FEF72BFF41F268
:1017C000883807462B6F9807CBD5FEF723FFC01B41
:1017D0004045F7D919E7FEF71DFFC01B4045BDD9AD
:1017E00013E71B4DAB6803F00C03082B3FF4CAAEA4
:1017F0001B4E0023022A336034D1FEF70BFF07464D
:101800002B6899011ED4226AE3691343626A43EA92
:101810008213E26A43EA0263A26A0D4C5208013A5B
:1018200043EA02436B6001233360FEF7F3FE054693
:1018300023689A013FF5BCAEFEF7ECFE401B022880
:10184000F6D9E2E6FEF7E6FEC01B0228D8D9DCE6B0
:101850000038024000004742800E474200700040BE
:1018600060004742FEF7D6FE04462B689B017FF5D9
:101870009FAEFEF7CFFE001B0228F6D9C5E600BFDB
:10188000134908B58B6803F00C03042B03D0082B15
:1018900003D0104808BD104808BD4A684B68496825
:1018A00013F4800314BF0C480A48C1F3881118BF11
:1018B000002302F03F02A1FB0001FEF7D9FC044B1C
:1018C0005B68C3F3014301335B00B0FBF3F008BD79
:1018D000003802400024F40000127A002DE9F041A3
:1018E0000D46044610B90120BDE8F081444B1A684A
:1018F00002F00F028A4228D321688F072DD4C8072F
:1019000040D43F4B1A6802F00F02954266D322681A
:1019100051076CD4130707D53A4A2169936823F419
:10192000604343EAC1039360FFF7AAFF354B364A91
:101930009B68C3F30313D35CD840344B18600F206B
:10194000FEF71EFE0020BDE8F081CAB21A701B68C7
:1019500003F00F039942C6D1CEE72A4B11F0040FD2
:101960001EBF9A6842F4E0529A600E0742BF9A681E
:1019700042F460429A609A68A06822F0F002024342
:101980009A60BCE762681F4B012A1DD11B6813F4E3
:10199000003FA8D01B4EB36823F003031343B3608A
:1019A000FEF738FE41F288380746B368626803F0F4
:1019B0000C03B3EB820FA4D0FEF72CFEC01B4045F6
:1019C000F3D90320BDE8F081911E01291B6802D8DC
:1019D00013F0007FDDE713F0020FDAE7EAB21A70C6
:1019E0001B6803F00F039D427FF47DAF8FE705492D
:1019F000E0688B6823F4E05303438B608AE700BF01
:101A0000003C024000380240C45B00081C0100207A
:101A1000014B1868704700BF1C010020044B054AA9
:101A20009B68C3F38223D35C034A1068D840704795
:101A300000380240D45B00081C010020044B054A1A
:101A40009B68C3F34233D35C034A1068D8407047A5
:101A500000380240D45B00081C0100200368DA68EB
:101A600022F49072DA605A6922F001025A6120234E
:101A700080F83A30704700002DE9F0470668C268E8
:101A80003369C16923F440531343336104468368C7
:101A90000069F2680343606922F41642034322F0AE
:101AA0000C020B431343F3607369A26923F4407380
:101AB0001343B1F5004F73617A4B7CD19E4203D042
:101AC00003F580639E4244D1FFF7B8FF192505FB5B
:101AD00000F360684FF064094000B3FBF0F3B3FB20
:101AE000F9F34FEA0318FFF7A9FF636868435B0047
:101AF000B0FBF3F7FFF7A2FF636868435B00B0FB3E
:101B0000F3F3B3FBF9F309FB1373DB003233B3FBDD
:101B1000F9F35B0003F4F877FFF790FF626868431E
:101B20005200B0FBF2FAFFF789FF636868435B007D
:101B3000B0FBF3F3B3FBF9F309FB13A3DB00323380
:101B4000B3FBF9F303F0070343443B44B360BDE840
:101B5000F087FFF763FF192505FB00F360684FF07E
:101B600064094000B3FBF0F3B3FBF9F34FEA031849
:101B7000FFF754FF636868435B00B0FBF3F7FFF7C0
:101B80004DFF636868435B00B0FBF3F3B3FBF9F30D
:101B900009FB1373DB003233B3FBF9F35B0003F48F
:101BA000F877FFF73BFF626868435200B0FBF2FA38
:101BB000FFF734FFB9E79E4202D03B4B9E4240D133
:101BC000FFF73CFF676819254FF0640905FB00F338
:101BD000BF00B3FBF7F3B3FBF9F31F01FFF72EFFD1
:101BE000636868439B00B0FBF3F8FFF727FF636867
:101BF00068439B00B0FBF3F3B3FBF9F309FB1383DA
:101C00001B013233B3FBF9F303F0F008FFF716FFC3
:101C1000626868439200B0FBF2FAFFF70FFF636857
:101C200068439B00B0FBF3F3B3FBF9F309FB13A389
:101C30001B013233B3FBF9F303F00F0343EA08034C
:101C400083E7FFF7EBFE676819254FF0640905FB92
:101C500000F3BF00B3FBF7F3B3FBF9F31F01FFF78A
:101C6000DDFE636868439B00B0FBF3F8FFF7D6FE28
:101C7000636868439B00B0FBF3F3B3FBF9F309FB24
:101C800013831B013233B3FBF9F303F0F008FFF7C2
:101C9000C5FE626868439200B0FBF2FAFFF7BEFE31
:101CA000BDE700BF0010014000140140F8B5044634
:101CB0000E4617461D4621680B6836EA030301D11C
:101CC0000020F8BD6B1CF7D095B92368DA6822F4C0
:101CD000D072DA605A6922F001025A61202384F836
:101CE000393084F83A30002384F838300320F8BDC6
:101CF000FEF790FCC01B8542DDD2E6E710B5044636
:101D000040B390F8393003F0FF021BB980F8382057
:101D100002F0BCFC2268242384F83930D36823F411
:101D20000053D3602046FFF7A7FE23681A6922F408
:101D300090421A615A6922F02A025A61DA6842F422
:101D40000052DA6000202023E06384F8393084F800
:101D50003A3010BD012010BD2DE9F0411F4690F82A
:101D60003930202B04460D4690464FD100294AD0E9
:101D7000002A48D090F83830012B47D0012380F852
:101D800038300023C363212380F83930FEF742FC4A
:101D9000A4F824800646A4F82680E38C9BB26BB995
:101DA0003B46324640212046FFF780FFB0B9202352
:101DB00084F8393084F83800BDE8F081E38C013BC9
:101DC0009BB2E384A368B3F5805F32463B464FF095
:101DD000800120460ED1FFF769FF10B10320BDE856
:101DE000F0812B882268C3F308035360236943B949
:101DF0000235D2E7FFF75AFF0028EFD123682A788F
:101E00005A600135C9E70120BDE8F0810220BDE834
:101E1000F0817047704790F83A30222B10B536D1D8
:101E2000836801690268B3F5805F836A23D15268D1
:101E3000E9B9C2F3080223F8022B8362C48D013C86
:101E4000A4B2C4858CB90368DA6822F02002DA6093
:101E5000DA6822F48072DA605A6922F001025A616B
:101E6000202380F83A30FFF7D5FF002010BDD2B212
:101E700023F8012BE1E721B9591C526881621A70DD
:101E8000DCE75268591C816202F07F02F7E702200A
:101E900010BD704703681A68D96870B51607044604
:101EA0005D6907D196065AD58D0658D5BDE87040B4
:101EB000FFF7B1BF15F0010502D111F4907F4ED0AC
:101EC000D30705D5CE0542BFE36B43F00103E363BF
:101ED000500704D51DB1E36B43F00203E36393079E
:101EE00004D51DB1E36B43F00403E363160704D587
:101EF0001DB1E36B43F00803E363E36B002B66D093
:101F0000950604D5880602D52046FFF784FF23688E
:101F10005D69E26B1107204602D415F040051AD026
:101F2000FFF79CFD23685A69520610D55A69606B09
:101F300022F040025A6150B1254B0365FEF774FD53
:101F4000002844D0606BBDE87040036D1847204600
:101F5000FFF79FFF70BDFFF79CFFE56370BD16069E
:101F600027D50D0625D594F83920212A2FD1A2682E
:101F7000B2F5805F226A17D11188C1F30801596058
:101F8000216979B902322262E28C013A92B2E2848A
:101F9000EAB9DA6822F08002DA60DA6842F04002D8
:101FA000DA6070BD0132EEE7511C216212785A608E
:101FB000EAE750060BD54A0609D5DA6822F0400256
:101FC000DA60202384F839302046FFF722FF70BD05
:101FD000D51F000808B5806B0023C385C384FFF7B5
:101FE00058FF08BD0A4B013B01D10320704702692D
:101FF000002AF8DA0369064A43F001030361013A53
:10200000F3D0036913F00103F9D11846704700BFFC
:10201000410D030084B038B505AD85E80E000A9B7C
:10202000012B044625D1836B23F480338363C3687B
:1020300023F4840323F04003C360C36823F44013F4
:10204000C360119B012B02BFC36843F48013C360BC
:10205000FFF7C8FF089B012B07D1A36843F00603D5
:10206000A360A36843F02003A360BDE8384004B038
:102070007047C36843F04003C360FFF7B3FF0E9B94
:1020800023B9A36B43F48033A363E3E7A36B23F487
:102090008033F9E7022A58D12E4B2F4A0B44934242
:1020A00047D92E4B2E4A0B44934244D9A1F57403D1
:1020B0002C4AA3F5105393423FD9A1F1837302F543
:1020C000C332A3F5E743A032934238D9264B274ABF
:1020D0000B44934235D9264B02F592220B4402F56C
:1020E000787293422FD9234B02F5C3220B4402F599
:1020F0002072934229D9A1F1B77302F5B712A3F563
:10210000585302F55872934221D91B4B02F5122203
:102110000B4402F5F862934294BF07230623C2687A
:1021200022F47052C260C26842EA8323C360002076
:1021300070470F23F3E70E23F1E70D23EFE70C239E
:10214000EDE70B23EBE70A23E9E70923E7E7082399
:10215000E5E700BF405327FFFF340C00401E1BFF84
:102160003F420F007F4F120060B6E5FE5FE31600AE
:1021700000D3CEFEC05BB3FEE05459FE836843F04B
:102180000103836000207047836823F001038360AC
:102190000020704708B5C368012923F0C043C3601D
:1021A00008D1C36843F00053C3603220FEF738FA09
:1021B000002008BD19B9C36843F08043F4E701204B
:1021C00008BD0000890141F02001064A0161013A81
:1021D00005D0036913F02003F9D118467047032096
:1021E000704700BF410D03001023064A0361013A06
:1021F00005D0036913F01003F9D118467047032086
:10220000704700BF410D0300D0F800381943C0F8F3
:10221000001800207047000084B02DE9F047044604
:1022200009A880E80E0000230C9F139E88461946DB
:1022300003F1400204EB820201330F2B5160F7D10E
:10224000002E73D1A36B43F40013A363A36B23F499
:102250000023A363A36B23F48023A3630023C4F8A8
:10226000003ED4F80038C4F800380E9B012B04F56A
:10227000006565D10B99002960D12046FFF7C4FFA6
:1022800010212046FFF79EFF01462046FFF7ACFFD6
:10229000002857D1081C18BF012000232B6104F52A
:1022A00010626B611946EB614FF0904E4FF0006C7D
:1022B0004FF67F39434547D1002104F530628E4601
:1022C0004FF0904C4FF000684FF67F398B424ED163
:1022D0002B69012F23F480732B6107D12E4B2B63C5
:1022E0002B6B43F4803343F003032B630023A36180
:1022F0006FF0804363611FB9A36943F01003A361CA
:10230000A269264B1343A3610F9B1BB1A36943F042
:102310000803A361012E01BFA36943F0804343F08A
:102320000403A361BDE8F04704B07047236823F4B9
:1023300000132360A36B43F400238EE719469CE748
:1023400003219AE70120A8E7D2F800A0BAF1000F14
:102350000BDA3BB9C2F800C011610133C2F8089032
:102360002032A7E7C2F800E0F6E71160F4E7D2F800
:1023700000A0BAF1000F0CDA41B9C2F80080C2F82F
:1023800010E00131C2F8089020329FE7C2F800C087
:10239000F5E7C2F800E0F2E70001800000383C8079
:1023A000D0F8083813F0060004D013F0020F14BF61
:1023B00002200F20704770B54A780C78D0F81C685E
:1023C00000F50063012A04F00F051BD1AA40324337
:1023D00000EB4410DA61D0F800391A0410D48B688D
:1023E000C978D0F80029C3F30A0343F0805343F4BB
:1023F000004343EA814343EA84531343C0F800395E
:10240000002070BD4FF48032AA40324300EB4410EC
:10241000DA61D0F8003B1B04F2D48B68C978D0F89D
:10242000002BC3F30A0343F0805343F4004343EA11
:1024300081431343C0F8003BE2E7000030B54B781E
:102440000C78D0F83C1800F50062012B04F00F0561
:1024500010D1AB40DB431940D163D16900EB44108C
:102460000B40D361D0F800290B4B1340C0F8003962
:10247000002030BD4FF48033AB40DB431940D163C3
:10248000D16900EB44100B40D361D0F8002B034B13
:102490001340C0F8003BEBE7007833EC0078F3EF33
:1024A000F0B54B780C784E69414F012B4FF020036B
:1024B00059D113FB040336BBD3F8105925F0FF554F
:1024C00025F4C015C3F81059D3F8105945F4002568
:1024D000C3F81059D3F810592F40C3F81079012AC6
:1024E0004FF0200329D10A691AB113FB0403C3F882
:1024F000142900EB4410D0F8002942F00442C0F83F
:1025000000290020F0BD03F510631D692F401F61F5
:102510001D6925F0FF5525F4C0151D618D68AE427B
:1025200088BF4D611D6945F400251D614D691E6917
:10253000C5F3120535431D61D1E713FB0404D4F83C
:10254000003943F00443C4F800394B69002BD8D05C
:102550000A78D0F8343802F00F0101228A401A4379
:10256000C0F83428CDE713FB040000F530631C6984
:1025700027401F611C6924F0FF5424F4C0141C611F
:102580008C6806B14C611D6945F400251D611D690B
:10259000C4F312042C43012A1C6102D1CA6802B19F
:1025A0005A61D0F8003B43F00443C0F8003BA8E771
:1025B0000000F8FF10B59DF808404CB9033300EB5C
:1025C000023023F0030300F580500B44994201D1FF
:1025D000002010BD51F8042B0260F7E7F7B54B78E7
:1025E0000E78734F012B4FF020044B6914FB060447
:1025F00040F09880002B38D104F51065D4F81049CC
:1026000024F0FF5424F4C0142C612C6944F40024F9
:102610002C612C6927402F61012A4FF0200454D1EE
:102620000B691BB114FB0604C4F81439CB78012BD9
:1026300010D1D0F8083813F4807F4FF0200313FB3B
:102640000603D3F800290CBF42F0005242F080523A
:10265000C3F8002900EB4610D0F8003943F00443DA
:10266000C0F80039002003B0F0BDD4F810592F4055
:10267000C4F81079D4F810598F6825F0FF5525F467
:10268000C015C4F81059DD19013DB5FBF7F7494DE8
:10269000D4F810E905EAC74545EA0E05C4F8105913
:1026A000D4F81079C3F312053D43C4F81059CD781E
:1026B000012D04F51064AFD1256925F0C0452561D1
:1026C000256945F000552561A6E714FB0604D4F8FA
:1026D000005945F00445C4F80059CD78012D0CD0BF
:1026E000002BBFD00B78D0F8344803F00F02012341
:1026F00093402343C0F83438B4E7D0F8085815F4B1
:10270000807FD4F800590CBF45F0005545F0805546
:10271000C4F800590C7800929BB22246C968FFF7B2
:1027200049FF9FE704F5306635692F403761356909
:1027300025F0FF5525F4C01535618D6823BB33693D
:10274000C5F312051D433561336943F40023012AA3
:10275000336102D1CB6803B17361CB78012B0CD10B
:10276000D0F8083813F4807FD4F8003B0CBF43F056
:10277000005343F08053C4F8003BD4F8003B43F0CF
:102780000443C4F8003B6DE70A4FD6F810E02B4431
:10279000013BB3FBF5F307EAC34747EA0E0737618E
:1027A0009BB237696B43C3F312033B43CFE700BFD0
:1027B0000000F8FF0000F81F033222F003020A4471
:1027C00000F58050914201D108467047036841F8F6
:1027D000043BF7E74B780A78012B4FF0200313FBFB
:1027E000020012D1D0F80039002B06DB2AB1D0F854
:1027F000003923F08043C0F80039D0F8003943F4A1
:102800000013C0F8003900207047D0F8003B002BBF
:1028100006DB2AB1D0F8003B23F08043C0F8003B30
:10282000D0F8003B43F40013C0F8003BEBE74B78D3
:102830000A78012B4FF0200313FB020011D1D0F8CE
:10284000003923F40013C0F80039CB78023B012B88
:1028500005D8D0F8003943F08053C0F80039002083
:102860007047D0F8003B23F40013C0F8003BCB784E
:10287000023B012B9EBFD0F8003B43F08053C0F8D1
:10288000003BECE7D0F8003823F4FE63C0F80038D2
:10289000D0F80038090101F4FE611943C0F80018AE
:1028A0000020704708B5D0F8043823F00203C0F8C0
:1028B00004380320FDF7B4FE002008BD08B5D0F8A9
:1028C000043843F00203C0F804380320FDF7A8FEE3
:1028D000002008BD4269806910407047D0F8183860
:1028E00000F50060C0691840000C7047D0F8183837
:1028F00000F50060C069184080B2704700EB4111DC
:1029000000F50060D1F8082B40691040704710B501
:10291000D0F81048D0F8343800EB411001F00F0126
:10292000CB4000F51060DB018068DBB22343184028
:1029300010BD406900F001007047D0F8003923F461
:10294000FF6323F00703C0F8003900F500639A68BD
:1029500002F00602042A02BFD0F8002942F0030266
:10296000C0F800295A6842F480725A60002070470B
:1029700010B5164B046C9C4203D9D0F8003B002BD9
:1029800021DB0024C0F8104BD0F8104B44F4002495
:10299000C0F8104BD0F8104B44F01804C0F8104B9E
:1029A000D0F8104B012944F0C044C0F8104B08BFC8
:1029B000C0F8142B00F5306302BFD0F8003B43F0A1
:1029C0008023C0F8003B002010BD00BF0A30544FE8
:1029D000D0F8943210B5D0F890425BB194F8000270
:1029E000FF2807D09B6894F8012221469847FF23CF
:1029F00084F80032002010BD432303800048704754
:102A000040000020432303800048704784000020DA
:102A10004323038000487047D40000200A2303802A
:102A200000487047C800002038B50546D0F89042ED
:102A300002F04CF8D5F89032C4F80C024BB1D5F83E
:102A40009432D4F80402DB6804F50371984700203F
:102A500038BD022038BDF8B5D0F89062D6B1142345
:102A600003FB0103DD698DB1D0F898421C2707FBF9
:102A70000142526CB5FBF2F402FB145434B9DC6130
:102A80002246234602F006F82046F8BD0020C6F88C
:102A90001402F8BD0220F8BD2DE9F7430A78D0F8FA
:102AA00090724FF0000812F0600405460E468DF853
:102AB0000580ADF8068028D0202C47D1CC884B78F3
:102AC000E4B1120611D5D0F894223946D2F8089014
:102AD00018462246C847F2883946284600F032FC9C
:102AE0004446204603B0BDE8F08387F8003287F8FB
:102AF00001422246394600F03AFCF1E7D0F8942230
:102B0000184695682246A847EBE74F780A2F0DD064
:102B10000B2F15D0D7B990F87432032B14D10222A1
:102B20000DF1060100F00EFC3C46DAE790F8743235
:102B3000032B09D101220DF1050100F003FCD0E7C0
:102B400090F87432032BCCD03146284600F0D3FBEA
:102B50000224C6E738B504460025812101F04EFF66
:102B60000121E562204601F049FFC4F85851822155
:102B7000204601F043FFD4F8903225644BB1D4F8DD
:102B800094325B689847D4F8900202F077F8C4F862
:102B90009052002038BD037C2DE9F0410446CBBBA8
:102BA0004FF4007302228121012501F017FFE56235
:102BB0004FF4007329460222204601F00FFFC4F8AB
:102BC00058510823032282212046012501F006FFE7
:102BD00025644FF4077002F049F80646C4F89002E5
:102BE00058B3D4F894321B68984794F810800027A3
:102BF000C6F81472C6F81872B8F1000F13D14FF46A
:102C00000073D6F804222946204601F051FF4046C1
:102C1000BDE8F081402302228121012501F0DEFE82
:102C2000E5624023C6E74023D6F804222946204621
:102C300001F03EFF3846BDE8F0812846BDE8F0814E
:102C400019B1C0F894120020704702207047D0F8E4
:102C500090320020C3F80812C3F810227047D0F851
:102C600090320020C3F804127047D0F8902210B5BB
:102C700062B1047C44B94FF40073D2F804220121FC
:102C800001F016FF002010BD4023F6E7022010BD22
:102C900008B580B1D0F88C3213B10023C0F88C3263
:102CA00009B1C0F88812012380F87432027001F073
:102CB00059FE002008BD022008BD19B1C0F88C12D1
:102CC000002070470220704708B501F079FE00200F
:102CD00008BD08B5D0F88C320BB9022008BD1B68BE
:102CE00098470028F9D108BD08B5D0F88C325B6848
:102CF0009847002008BD38B5044600F520752846E1
:102D000000F0E5FA012394F88012C4F86C32B4F8AC
:102D10008632C4F8703201F01F03012B0ED007D3A6
:102D2000022B10D001F08001204601F075FE03E077
:102D30002946204600F004F9002038BD29462046E7
:102D400000F018FAF8E72946204600F038FAF3E7D1
:102D500070B50546164649BBD0F86C32032B1ED120
:102D6000D0F84C31D0F8502193420BD99B1A9A429B
:102D7000C0F84C318CBF9AB292B2314600F006FBDB
:102D8000002070BDD0F88C321B6923B190F87422FA
:102D9000032A00D19847284600F000FBF0E7052BF6
:102DA000EED1C5F86C1201F037FEE9E7D0F88C32AD
:102DB0009B692BB190F87422032A01D19847DFE771
:102DC000022070BD70B5134604460E46002948D156
:102DD000D0F86C22022A3DD1056A426A954214D984
:102DE000AA1A0262194692B200F0B9FA33461A469C
:102DF0001946204601F05CFE94F87832012B4FF022
:102E000000003AD184F8780270BDC369B3FBF2F5D3
:102E100002FB153565B99A420AD8D0F87022934260
:102E200006D22A4600F09BFAC4F870522B46DEE721
:102E3000D4F88C32DB682BB194F87422032A01D1C8
:102E4000204698478021204601F0E6FD204600F00C
:102E5000B0FAD1E732F00403CED1802101F0DCFDDD
:102E6000CAE7D0F88C325B6933B190F87422032A38
:102E700002D19847002070BD022070BD70B50022BD
:102E80000446114601254026402301F0A7FD3346A4
:102E90008021C4F84451C4F850610022204601F05A
:102EA0009DFDD4F89032A5610021666284F87452C9
:102EB000C4F86C126160C4F87C1223B1D4F88C326F
:102EC00020465B689847002070BD01740020704761
:102ED00090F8743280F87532042380F87432002040
:102EE000704790F8753280F874320020704708B54A
:102EF00090F87422032A04D1D0F88C32DB6903B134
:102F00009847002008BD002070470020704700202F
:102F1000704708B5012280F87422D0F88C2201791C
:102F200052689047002008BD10B58021044601F08A
:102F300073FD20460021BDE8104001F06DBD00008A
:102F400037B50B7803F06003202B04460D4614D0F0
:102F5000402B12D0002B40F08D804B78092B00F2D3
:102F60008880DFE813F0DF00F9008600F2008600B9
:102F70007A0013008600CA009800D4F88C322946E3
:102F80009B6820469847002003B030BD4B881A0A42
:102F9000013A062A6DD8DFE802F004202D6C6C4D52
:102FA0005600D0F888321B68207C0DF10601984746
:102FB000BDF8062052B1EB8843B19A4228BF1A46A9
:102FC00001462046ADF8062000F0BCF9EB88002B46
:102FD000D9D1204600F0E2F9D5E7027CD0F88C3256
:102FE00032B99B6A0DF10600984702234370DFE770
:102FF000DB6AF7E7DBB2052B3BD8DFE803F003071A
:103000000B0F1317D0F888325B68CDE7D0F8883201
:103010009B68C9E7D0F88832DB68C5E7D0F888320A
:103020001B69C1E7D0F888325B69BDE7D0F8883208
:103030009B69B9E7037CE3B9D0F88C320DF1060047
:103040005B6B9847B4E7037C9BB9D0F88C320DF1E9
:1030500006001B6B98470723C8E78B884BB9CB88C2
:103060003BB94D887F2D04D890F87432032BE9B218
:1030700003D12046FFF758FF85E780F8761201F06C
:10308000FBFC204600F08AF91DB1022384F874325B
:1030900079E70123FAE78978354D01292970E8D8C5
:1030A00090F87432022B08D0032B14D0FFF73CFFAA
:1030B00029782046FFF718FE65E7002989D001210D
:1030C0000323416080F874322046FFF702FE022895
:1030D0007FF47FAFCDE731B9022380F874324160CD
:1030E000FFF702FE75E7416801293FF472AFC9B2EC
:1030F000FFF7FAFD29786160E6E7CA88012AB8D1AE
:1031000090F87432002BB4D0022B03D9032BB0D12A
:10311000011D03E00146002341F8083F204600F06E
:1031200011F930E790F87432013B022BA1D8CB881B
:10313000022B9ED10123C360D0F87C320BB1032354
:10314000C360022204F10C01E8E74B88012B7FF4F5
:103150001AAFC4F87C323CE790F87432013B022B82
:1031600087D84B88012B7FF40EAF0023F1E700BF17
:103170000002002038B50B7803F06003202B0446D2
:103180000D4602D0402B00D0B3B994F87432013B05
:10319000022B10D82B79012B0DD8D4F88C3229466C
:1031A0009B6820469847EB881BB910B9204600F071
:1031B000F5F8002038BD2046FFF7B6FEF9E738B530
:1031C0000A7802F06002202A04460B4613D0402AF7
:1031D00011D06AB95D788A88012DD1B21FD035D35C
:1031E000032D05D190F87422022A26D0032A0AD092
:1031F000FFF79AFE05E0D4F88C2219469268204623
:103200009047002038BD5A882AB94A0603D0DB8887
:103210000BB901F001FC204600F0C0F8F1E790F88E
:103220007422022A09D0032AE2D15B88002BE8D15C
:103230004D06F0D001F0FEFBEDE74B0617D001F094
:10324000EBFB8021204601F0E7FBDAE790F87432CF
:10325000022B0ED0032BCBD112F0800F4FF01403B2
:1032600001F00F0203FB020212D09269DAB9204684
:10327000BEE74906FBD113064CBF00F1140100F56F
:10328000A07100230B600222204600F05BF8B8E733
:10329000D2F84421002AEAD001F07F0503FB05059E
:1032A00005F5A07504E001F07F0505FB0335054435
:1032B00011F07F0303D12B6002222946E4E7204668
:1032C00001F0C6FB08B10123F5E72860F4E70B78AD
:1032D00003704B784370CA788B7803EB02234380EA
:1032E0004A790B7903EB02238380CA798B7903EB4C
:1032F0000223C380704710B58021044601F08CFB87
:1033000020460021BDE8104001F086BB30B588B1F1
:1033100005462B1A15F8014BDBB2002CF9D101330D
:103320005B0013800B7003234B700138022310F8ED
:10333000015F05B930BD5A1CD2B2CD540233DBB2A5
:103340008C54F4E710B513460222C0F86C22C36116
:103350000A460362002101F09DFB002010BD08B564
:1033600013460A46002101F095FB002008BD10B568
:1033700013460322C0F86C22C0F848310A46C0F850
:103380004C31002101F094FB002010BD08B513461C
:103390000A46002101F08CFB002008BD08B504237B
:1033A000C0F86C3200231A46194601F073FB002066
:1033B00008BD08B50523C0F86C3200231A4619462B
:1033C00001F076FB002008BD08B500F0B9FC002034
:1033D00008BD70B5054646692A694068B5F90840D8
:1033E0000B4686B0296876B1AD6965B1842C14BFEF
:1033F0000334002402958DE8500000F03DFC059058
:10340000059806B070BD842C14BF0334002405ADAC
:1034100092B28DE8300000F066FC0128F0D0002068
:10342000EFE708B5002808BF012000F0D1FD00201B
:1034300008BD08B500F02AFE012803D0BDE8084009
:1034400000F018B908BD00F1080343604FF0FF32E7
:10345000C36003610023826003607047002303613F
:10346000704743684B609A688A609A6851609960B7
:10347000036808610133036070470A68531C30B564
:103480000AD103695A684A6091608B605960036889
:1034900008610133036030BD00F108035C682568F2
:1034A000AA42EFD32346F9E74168826803698A603C
:1034B000826851605968884208BF5A6000220261E0
:1034C0001A68013A1A6018687047000082B0002339
:1034D00001930D4B1B68013308D04FF0500383F369
:1034E0001188BFF36F8FBFF34F8FFEE74FF050038C
:1034F00083F31188BFF36F8FBFF34F8F019B002BB6
:10350000FCD002B0704700BF1801002008480068D6
:10351000006880F308884FF0000080F3148862B6DA
:1035200061B6BFF34F8FBFF36F8F00DF00BF0000A6
:1035300008ED00E0DFF80C00016841F47001016063
:103540007047000088ED00E04FF0807340F8043CC5
:10355000074B40F80C3C21F001016FF0020340F8EA
:10356000081C40F8202C40F8243C4438704700BF29
:10357000CD34000800000000000000000000000042
:10358000074B19680868B0E8F04F80F30988BFF36B
:103590006F8F4FF0000080F311887047AFF3008009
:1035A000203E00204FF0500383F31188BFF36F8F4C
:1035B000BFF34F8F0A4A13680133012B13600DD1FB
:1035C000084B1B6813F0FF0F08D04FF0500383F334
:1035D0001188BFF36F8FBFF34F8FFEE7704700BFB7
:1035E0001801002004ED00E0084A136843B94FF0C9
:1035F000500383F31188BFF36F8FBFF34F8FFEE744
:10360000013B13600BB983F3118870471801002048
:10361000EFF30980BFF36F8F154B1A681EF0100F80
:1036200008BF20ED108A20E9F04F10602DE9090055
:103630004FF0500080F31188BFF34F8FBFF36F8FAF
:1036400000F0EAFC4FF0000080F3118809BC196813
:103650000868B0E8F04F1EF0100F08BFB0EC108AF9
:1036600080F30988BFF36F8F704700BFAFF300800E
:10367000203E002008B54FF0500383F31188BFF3BC
:103680006F8FBFF34F8F00F099FB18B1034B4FF0D2
:1036900080521A60002383F3118808BD04ED00E016
:1036A000084A0949002313600B60084B4FF47A71F4
:1036B0001B68B3FBF1F30649013B0B600723136062
:1036C000704700BF10E000E018E000E01C0100209F
:1036D00014E000E0394B3A4A13B51968914208D119
:1036E0004FF0500383F31188BFF36F8FBFF34F8FF9
:1036F000FEE71A68334B9A4208D14FF0500383F328
:103700001188BFF36F8FBFF34F8FFEE72E4B1A78F0
:10371000D2B20192FF221A701B782C4ADBB28DF8CC
:1037200003309DF8033003F050031370284B072239
:103730001A6000219DF80300000602F1FF340DD449
:1037400001B11A601A68032A11D04FF0500383F3B5
:103750001188BFF36F8FBFF34F8FFEE79DF80320F3
:103760005200D2B28DF8032001212246E2E7120274
:1037700002F4E0621A60019B134ADBB21370154B2E
:103780001A6842F470021A601A6842F070421A60B5
:10379000FFF786FF104B00241C60FFF7CBFE0F4A9B
:1037A000136843F040431360FFF7B0FE00F034FCB1
:1037B000FFF78CFE204602B010BD00BF00ED00E018
:1037C00071C20F4170C20F4100E400E0010200200D
:1037D0000402002020ED00E01801002034EF00E09A
:1037E00010B50F4B1A68824218D35C6819198842C9
:1037F00001BF4168184609195960446801198A4295
:1038000007D1084909688A421FBF5168126809191F
:1038100041609842026018BF186010BD1346E1E78E
:10382000183E0020080200202DE9F041044600F077
:10383000BDFA3E493E4D0B680BBB3E4A56071FBFC3
:10384000D01D20F0070002F570531B1A14BF02466A
:103850004FF470531344083B23F00703364E0B60BC
:1038600000207060326058601860981A1360334B03
:1038700050601860324B18604FF000432B602F6887
:10388000274216D1002C41D004F1080358071CBF71
:1038900023F00703083363B1294A1668B342904600
:1038A00007D8254A15686868834204D809688D429C
:1038B00007D100242AE02C68002CF7D02A462546A0
:1038C000F1E7296814681160C21A102A0FD9E818A4
:1038D000410708D04FF0500383F31188BFF36F8F77
:1038E000BFF34F8FFEE742606B60FFF779FF13492C
:1038F0006B680868F61A1F4386424FF00003C8F849
:10390000006038BF0E6008346F602B6000F0E8FA8A
:10391000630708D04FF0500383F31188BFF36F8F14
:10392000BFF34F8FFEE72046BDE8F081080200207C
:103930000C3E00200C020020183E0020143E002007
:10394000103E002010B5044670B3184A50F8043CED
:103950001268134208D14FF0500383F31188BFF36C
:103960006F8FBFF34F8FFEE750F8081C41B14FF047
:10397000500383F31188BFF36F8FBFF34F8FFEE7C0
:1039800023EA020340F8043C00F010FA084A54F815
:10399000043C1168A4F108000B441360FFF720FFFA
:1039A000BDE8104000F09CBA10BD00BF0C3E0020E6
:1039B000103E00202DE9F0410646FFF7F3FD2D4BA8
:1039C0002D4C1A682D4F01321A602568002D45D103
:1039D00026601B68012B1CD178191435FFF733FDC5
:1039E0008C2DF9D1DFF8C080254D4046FFF72BFD27
:1039F0002846FFF728FD2348FFF725FD2248FFF75B
:103A000022FD2248FFF71FFD214BC3F80080214B08
:103A10001D60214A21491368086801331360F26A66
:103A200001239340034314200B6000FB0270311DFF
:103A3000FFF717FDFFF7D8FD194B1B6863B123682B
:103A4000DA6AF36A9A4207D2164B4FF080521A6034
:103A5000BFF34F8FBFF36F8FBDE8F081104B1B6832
:103A6000002BD6D12368DA6AF36A9A4298BF26609F
:103A7000CFE700BFB83E0020203E00202C3E0020B3
:103A8000E43E0020003F00202C3F0020183F002093
:103A9000243E0020283E0020C83E0020CC3E0020CE
:103AA000143F002004ED00E0D03E0020064A1368D9
:103AB0001968064B19B94FF0FF321A607047126847
:103AC000D268D2685268F8E7243E0020F83E002011
:103AD0002DE9F0470A9CDDF82480266B02F1804234
:103AE000013A06EB82069A4681464B1E26F00706EF
:103AF00004F134020F31587802F8010B13F8010F6A
:103B000008B18B42F7D1089D062D28BF0625002756
:103B1000E5626564201D84F84370A764FFF79EFC8E
:103B2000C5F1070504F11800FFF798FCE76424616C
:103B3000A561646284F85070524649463046FFF7EA
:103B400003FD2060B8F1000F01D0C8F80040BDE8C7
:103B5000F08710B590F8513004463BB9006BFFF781
:103B6000F1FE2046BDE81040FFF7ECBE012BF9D076
:103B7000022B08D04FF0500383F31188BFF36F8FEF
:103B8000BFF34F8FFEE710BD80B5DFF85C80124FAA
:103B9000124C134D236863B9124B1B68012BF8D9E3
:103BA0004FF08053C8F80030BFF34F8FBFF36F8FD3
:103BB000EEE7FFF7F7FCFB68DE68301DFFF774FCEB
:103BC0002B68013B2B602368013B2360FFF70CFD52
:103BD0003046FFF7BEFFDDE72C3F0020BC3E002053
:103BE000B83E00202C3E002004ED00E0F8B51B4B51
:103BF0001B4E1D680446306804300F46FFF754FC26
:103C0000334640B93168174EC96A3268012088408E
:103C100022EA00023260621C07D137B119681248EB
:103C20000431BDE8F840FFF71CBC2C441A68A542DB
:103C3000546007D90D4A10681968BDE8F84004318E
:103C4000FFF71BBC0A4A106819680431FFF715FC1E
:103C5000084B1A68944238BF1C60F8BD403F0020F2
:103C6000203E0020CC3E0020183F0020283E0020AF
:103C7000243E0020F83E002070B586B00B9D0C9CC1
:103C800045B94FF0500383F31188BFF36F8FBFF333
:103C90004F8FFEE744B94FF0500383F31188BFF311
:103CA0006F8FBFF34F8FFEE754260496049E542E69
:103CB00008D04FF0500383F31188BFF36F8FBFF329
:103CC0004F8FFEE72563022584F8515005AD01951D
:103CD0000A9D02940095FFF7FBFE2046FFF76AFE5F
:103CE000059806B070BD2DE9F043074685B09000F9
:103CF000884616469946FFF797FD0546E8B15420D9
:103D0000FFF792FD0446A8B1002380F851300D9BC7
:103D1000056301930C9B0290009332464B4641464B
:103D20003846FFF7D5FE2046FFF744FE012005B0D8
:103D3000BDE8F0832846FFF705FE4FF0FF30F6E7B9
:103D400010B588B0002407AA06A905A80594069412
:103D500000F0B6FA059B0293069B0193009423465C
:103D6000079A0D490D48FFF787FF90B14FF05003B8
:103D700083F31188BFF36F8FBFF34F8F084B4FF062
:103D8000FF321A60074B01221A60074B1C60FFF7D5
:103D9000A1FC08B010BD00BF885B0008893B00088B
:103DA000F83E0020143F0020403F0020024A1368E4
:103DB00001331360704700BFC43E00202DE9F84F67
:103DC0003C4B1B68002B53D13B4B1C6801341C60DF
:103DD000BCB93A4B1A68126842B14FF0500383F3F2
:103DE0001188BFF36F8FBFF34F8FFEE7344A196816
:103DF000106818601160334A136801331360FFF7CD
:103E000055FE314D314F2B689C424FF0000B3ED395
:103E1000DFF8A880DFF8C490D8F80020126872BBE1
:103E20004FF0FF322A6032E006F1040A5046FFF7F5
:103E30003BFBB16A19B106F11800FFF735FBF06AD8
:103E4000D9F80030012202FA00F11943204BC9F8D9
:103E500000104FF0140E51460EFB0030FFF701FB2F
:103E60003868F16AC26A914228BF4FF0010BD3E76C
:103E7000184A1368013313604FF0000B11E0D8F8B3
:103E80000020D268D66871688C42CDD229603A6829
:103E90000F4BD16A14224A439A58022A28BF4FF086
:103EA000010B0D4A1268002A18BF4FF0010B58464B
:103EB000BDE8F88FC43E0020403F0020243E002093
:103EC000283E0020FC3E0020F83E0020203E00203E
:103ED0002C3E0020C03E0020443F0020CC3E00206D
:103EE0002DE9F843314C236843B94FF0500383F375
:103EF0001188BFF36F8FBFF34F8FFEE7FFF752FBC1
:103F00002368013B236024682CB10024FFF76CFB7D
:103F10002046BDE8F883264B1B68002BF5D0DFF860
:103F2000A890244FDFF8A480D9F80030E3B90CB191
:103F3000FFF7BCFD204D2C6844B1204E0127FFF750
:103F40003DFF00B13760013CF9D12C601B4B1B6871
:103F5000002BDAD01A4B4FF080521A60BFF34F8F0C
:103F6000BFF36F8F0124D1E7D9F80C30DC68261D30
:103F700004F11800FFF798FA3046FFF795FAE26A65
:103F80003968012505FA02F314200B4300FB028077
:103F900031463B60FFF765FA0A4BE26A1B68DB6A51
:103FA0009A4224BF054B1D60BEE700BFC43E0020FF
:103FB000B83E0020CC3E0020C03E0020443F002000
:103FC00004ED00E0203E0020003F00202C3E0020B9
:103FD00008B540B90E4B4FF080521A60BFF34F8FB7
:103FE000BFF36F8F08BD0B4B196841B14FF0500301
:103FF00083F31188BFF36F8FBFF34F8FFEE7FFF797
:10400000D5FEFFF7F3FDFFF76BFF0028E2D008BDF8
:1040100004ED00E0C43E0020174B1A68174B10B5A2
:1040200012B101221A6010BD1A60154B1B68B3FA59
:1040300083F3DBB2C3F11F03142212495A438818D9
:104040008C5844B94FF0500383F31188BFF36F8F3E
:10405000BFF34F8FFEE744680832646844600A4447
:10406000944204BF62684260142202FB03135B683F
:10407000DA68054BD6E700BFC43E0020443F00206D
:10408000CC3E00202C3E0020203E0020054B1B682B
:1040900033B1054B1B68002B0CBF0220002070477A
:1040A00001207047143F0020C43E002008B50C4892
:1040B0000C4B4FF0100E80E8084000238360C36073
:1040C00003614361037643768376C3760377437750
:1040D000FCF7BAFA18B1BDE8084000F0DBB908BD3A
:1040E000D84100200064004008B50C480C4B4FF04C
:1040F000100E80E8084000238360C36003614361C1
:10410000037643768376C37603774377FCF79CFA8E
:1041100018B1BDE8084000F0BDB908BDB0410020AD
:104120000068004010B514228AB0044600210DEB4F
:10413000020000F0ABFD2368524A93424AD1524A32
:1041400013680133012B13600BD1002300934F4BF5
:104150001A6C42F000721A641B6C03F00073009337
:10416000009B4A4B4A48002401941A6B42F0080213
:104170001A631B6B03F008030193019B03230222C4
:104180000593089305A9092309930692FCF75EFCA1
:10419000224605211320FCF7EFFB1320FCF720FC3F
:1041A000224605211420FCF7E7FB1420FCF718FC3D
:1041B000224605211520FCF7DFFB1520FCF710FC3B
:1041C000162022460521FCF7D7FB1620FCF708FC39
:1041D0000AB010BD2F4A9342FAD12C4B2A48002135
:1041E00002911A6C42F080621A641A6C02F08062CA
:1041F0000292029A02680132012A026009D10391F7
:104200001A6C42F000721A641B6C03F00073039383
:10421000039B1E4B2048002404941A6B42F00202B8
:104220001A631B6B03F002030493049B4FF4405387
:104230000593022306930323089305A909230993F1
:10424000FCF704FC224605213F20FCF795FB3F20AC
:10425000FCF7C6FB224605214020FCF78DFB4020E1
:10426000FCF7BEFB224605214120FCF785FB4120DF
:10427000FCF7B6FB422022460521FCF77DFB4220DD
:10428000A4E700BF00640040483F0020003802401F
:10429000000C0240006800400004024008B500F035
:1042A00077FA064C204600F019FE412000F060FA33
:1042B0004FF47A70FFF7B5F8F4E700BF8D5B0008A4
:1042C000034B0360034B0B6080231360704700BFF8
:1042D0004C4100204C3F002030B5084D0FCD89B037
:1042E00001AC0FC495E8070084E80700002101A88D
:1042F000FFF76FF8024B186009B030BD6C5B000827
:104300000042002030B58DB01422002107A800F033
:10431000BDFC0024284B01941A6B284D42F0040286
:104320001A631A6B02F004020192019A02941A6B4A
:1043300042F020021A631A6B02F020020292029AE3
:1043400003941A6B42F080021A631A6B02F0800227
:104350000392039A04941A6B42F001021A631A6BD7
:1043600002F001020492049A05941A6B42F00202D0
:104370001A631A6B02F002020592059A06941A6BF0
:1043800042F008021A631B6B03F0080306932246EF
:1043900028464FF4C061069BFCF738FC4FF4C0631D
:1043A000079307A901232846089309940A94FCF768
:1043B0004DFB0DB030BD00BF00380240001402407C
:1043C00030B595B03022002108A800F05FFC002134
:1043D000142203A800F05AFC00251C4B01951A6C0E
:1043E00042F080521A641B6C03F080530193019BCE
:1043F000174B02951A6842F480421A601B6803F456
:1044000080430293029B012308934FF48033099366
:104410004FF480030F930423109348230224119335
:1044200008A8032313930E941294FDF7A7F80F2303
:10443000039321464FF4805303A8049405950693F3
:104440000795FDF74BFA15B030BD00BF00380240AC
:104450000070004008B5FCF7B7F8FFF7B1FFFFF7B1
:1044600051FFFFF723FEFFF73FFE00F0D7F800F003
:10447000F1F86523044A0549054800F0BBFCFFF745
:104480002BFFFEF7A1FFFEE7A65B0008AB5B000871
:10449000B95B00087047000007B50F4B002200927F
:1044A000596C41F480415964596C01F48041009188
:1044B00000990192196C41F0805119641B6C03F052
:1044C000805301930F216FF00100019BFCF754FA18
:1044D00003B05DF804FB00BF003802407047FEE700
:1044E000FEE7FEE7FEE7704708B5FCF787F8BDE892
:1044F0000840FEF79EBF00000148FCF72DB900BF41
:10450000D8410020FFF7F8BFFFF7F6BFFFF7F4BF71
:104510000148FDF7BFBC00BF044200200148FDF781
:10452000B9BC00BF444200200148FCF715B900BFE8
:10453000B0410020FFF7F8BFFFF7F6BFFFF7F4BF69
:104540000148FCF70FBC00BF2055002070B50E4697
:1045500015460C46A31B9D4201DC284670BDAFF3F7
:10456000008004F8010BF5E770B50E4615460C46C1
:10457000A31B9D4201DC284670BD14F8010B00F01E
:10458000F7F8F5E708B50A4B1968024609B9094971
:1045900019601868694602448A4206D900F03CFB5B
:1045A0000C2303604FF0FF3008BD1A6008BD00BF48
:1045B000A04100202C5B00204FF0FF3070474FF4EB
:1045C00000534B6000207047012070470020704767
:1045D0000F49D1F8883043F47003C1F888300D4B8F
:1045E0001A68002042F001021A6098601A6822F0EE
:1045F000847222F480321A60074A5A601A6822F4E0
:1046000080221A60D8604FF000638B60704700BF53
:1046100000ED00E0003802401030002408B50B48DF
:104620000B4B4FF4E13E80E808400C2200238360EE
:10463000C360036142618361C361FDF75FFB18B131
:10464000BDE80840FFF726BF08BD00BF04420020B8
:104650000010014008B50B480B4B4FF4E13E80E8D9
:1046600008400C2200238360C360036142618361C0
:10467000C361FDF743FB18B1BDE80840FFF70ABF6F
:1046800008BD00BF444200200044004010B5142281
:104690008AB0044600210DEB020000F0F7FA23680F
:1046A0002F4A93422ED12F4B2F48002401945A6C4D
:1046B00042F010025A645A6C02F010020192019A00
:1046C00002941A6B42F001021A631B6B03F00103A0
:1046D0000293029B4FF4C0630593022306930123C8
:1046E00007930323089305A907230993FCF7AEF961
:1046F000252022460521FCF73FF92520FCF770F91B
:104700000AB010BD194A9342FAD1164B164800243C
:1047100003941A6C42F400321A641A6C02F40032E8
:104720000392039A04941A6B42F001021A631B6B02
:1047300003F001030493049B0C23059302230693C7
:10474000012307930323089305A907230993FCF783
:104750007DF9262022460521FCF70EF92620CDE71B
:1047600000100140003802400000024000440040B8
:1047700007B502A94FF0FF3341F8040D01220348A9
:10478000FDF7EAFA019803B05DF804FB444200200B
:1047900008B500220E490F48FEF77AFA08B1FFF774
:1047A00079FE0D490B48FEF788FA08B1FFF772FE53
:1047B0000A490848FEF744FA08B1FFF76BFE0548BE
:1047C000FEF782FA18B1BDE80840FFF763BE08BDE6
:1047D0003001002084420020080000202001002039
:1047E000002070470020704710B5054C0146204658
:1047F000FEF735FA2046FEF738FA002010BD00BF5C
:104800008442002010B5064C064900222046FEF7DF
:104810001EFA05492046FEF722FA002010BD00BF0F
:1048200084420020204D00202045002030B5044661
:1048300089B01422002103A800F028FA2368B3F1FC
:10484000A04F2ED1184C194800250195236B43F039
:1048500001032363236B03F001030193019B4FF4D6
:10486000C0530393022304930323069303A90A234B
:104870000793FCF7EBF8636B43F0800363630295E7
:10488000636C43F480436364636C03F4804302937A
:1048900043202A460521029BFCF76EF84320FCF7D3
:1048A0009FF809B030BD00BF003802400000024050
:1048B00000F57171D0F80404FEF71DBA1C2303FB48
:1048C0000103D0F80404D3F80822FEF741BA1C23F0
:1048D00003FB0103D0F804049A6CFEF773BAD0F816
:1048E0000404FEF704BBC16810B5044621B10229D7
:1048F00001D0FFF7CFFD0121D4F80404FEF7E5FA5B
:10490000D4F80404BDE81040FEF7B8BA10B5044668
:10491000D0F80404FEF7DCFA2268D2F8003E43F037
:104920000103C2F8003E236A23B1034A136943F02E
:104930000603136110BD00BF00ED00E0D0F80404D1
:10494000FEF7CFBAD0F80404FEF7DFBAD0F80404BB
:10495000FEF7D9BAD0F80404FEF7D9BAD0F80404A7
:10496000FEF7D7BA08B5027832BB144B0421C3F85E
:104970000404C0F898324FF0A04083E803000221FD
:104980001846D9601A619961DA611A625A62DA626C
:104990001A63FCF740F908B1FFF77CFD8021074856
:1049A000FCF7E6FD402200210448FCF7C0FD802210
:1049B00001210248FCF7BBFD002008BD2055002066
:1049C00008B5D0F89802FCF7ADF903289ABF024B5E
:1049D000185C022008BD00BFDC5B000810B51C4657
:1049E000D0F8980213462246FCF78AFC03289ABFA7
:1049F000014B185C022010BDDC5B000808B5D0F844
:104A00009802FCF7B2FC03289ABF024B185C022004
:104A100008BD00BFDC5B000808B5D0F89802FCF7C1
:104A20001AFD03289ABF024B185C022008BD00BF84
:104A3000DC5B000808B5D0F89802FCF746FD0328B7
:104A40009ABF024B185C022008BD00BFDC5B000867
:104A500011F0800FD0F898324FF01C021BBF01F00C
:104A60007F0102FB013102FB013191F83E0008BFDA
:104A700091F8FE017047000008B5D0F89802FCF7E5
:104A80002BFC03289ABF024B185C022008BD00BF14
:104A9000DC5B000808B5D0F89802FCF7BCFC0328E2
:104AA0009ABF024B185C022008BD00BFDC5B000807
:104AB00008B5D0F89802FCF782FC03289ABF024B95
:104AC000185C022008BD00BFDC5B0008D0F898022B
:104AD000FCF799BC12230B80004870474C01002062
:104AE00004230B800048704760010020002330B58C
:104AF0001D46DCB2A24200D830BD040F092C94BF81
:104B00003034373401F8134001EB43040001657081
:104B10000133EEE71A2310B50B80094B18680833F0
:104B20001B68C0180AD0074B07491C680822FFF70A
:104B3000DDFF042205492046FFF7D8FF044810BDD9
:104B4000107AFF1F147AFF1F6601002076010020F3
:104B50006401002010B5044C04480A462146FEF7C3
:104B6000D5FB204610BD00BF28590020F95B000886
:104B700010B5044C04480A462146FEF7C7FB204600
:104B800010BD00BF285900200C5C000810B5044C73
:104B900004480A462146FEF7B9FB204610BD00BF77
:104BA00028590020E05B000810B5044C04480A4670
:104BB0002146FEF7ABFB204610BD00BF2859002060
:104BC000EB5B0008DFF834D0002103E00C4B5B58AE
:104BD000435004310B480C4B42189A42F6D30B4A0F
:104BE00002E0002342F8043B094B9A42F9D3FFF755
:104BF000EFFC00F017F8FFF72DFC704700000220D3
:104C0000CC5C000800000020E4010020E40100204A
:104C10002C5B0020FEE70000014B1868704700BFC6
:104C20008001002070B50D4E0D4CA41BA410002572
:104C3000A54209D10B4E0C4C00F08CFFA41BA41014
:104C40000025A54205D170BD56F82530984701359D
:104C5000EEE756F8253098470135F2E7C45C0008C6
:104C6000C45C0008C45C0008C85C0008024B014634
:104C7000186800F061B800BF80010020024B0146B7
:104C8000186800F00BB800BF800100200244034602
:104C9000934200D1704703F8011BF9E738B5054688
:104CA000002945D051F8043C0C1F002BB8BFE41874
:104CB00000F0CCFB1F4A1368104633B963601460E0
:104CC0002846BDE8384000F0C2BBA3420CD9216899
:104CD0006218934204BF1A685B68636004BF52188D
:104CE00022600460ECE713465A680AB1A242FAD97E
:104CF00019685818A0420BD1206801445818824204
:104D00001960DDD1106852685A6001441960D7E714
:104D100002D90C232B60D3E7206821188A4204BFF4
:104D200011685268626004BF091821605C60C7E7BF
:104D300038BD00BFA441002070B5CD1C25F003058F
:104D400008350C2D38BF0C25002D064601DBA94285
:104D500003D90C233360002070BD00F077FB234A99
:104D60001468214691B9224C23681BB9304600F0E3
:104D7000BDF820602946304600F0B8F8431C26D123
:104D80000C233360304600F062FBE4E70B685B1BEA
:104D90001AD40B2B0FD90B60CD50CC18304600F035
:104DA00056FB04F10B00231D20F00700C31A1BD093
:104DB0005A42E25070BD8C420DBF63684B6863601D
:104DC000136018BF0C46E9E70C464968CAE7C41CE3
:104DD00024F00304A04205D0211A304600F086F8E2
:104DE0000130CDD02560D9E770BD00BFA4410020BF
:104DF000A84100200FB40A4B13B51C6824B1A36965
:104E000013B9204600F034FA05AB049AA168019367
:104E1000204600F047FB02B0BDE8104004B07047E8
:104E20008001002070B50E46054618B183690BB9A4
:104E300000F01EFAAB69AC6813B9284600F018FA06
:104E4000234B9C4217D16C68A3891B071DD523698E
:104E5000DBB1013EA36816F8011F013BA360E9B96D
:104E6000002B2EDA22460A21284600F04FF80130A6
:104E700011D00A2070BD174B9C4201D1AC68E3E70A
:104E8000154B9C4208BFEC68DEE72146284600F03F
:104E90008FF80028DDD04FF0FF3070BD002B04DA12
:104EA000A269934206DB0A2904D023685A1C2260B7
:104EB0001970CFE72246284600F028F80130C9D102
:104EC000E9E723680A205A1C2260187070BD00BFF1
:104ED000485C0008685C0008285C0008024B01463A
:104EE0001868FFF79FBF00BF8001002038B5064C4F
:104EF0000023054608462360FFF744FB431C02D10C
:104F0000236803B12B6038BD285B0020F8B50E463E
:104F10001446054618B183690BB900F0A9F9214B75
:104F20009C422AD16C68A369A360A3891A072ED575
:104F3000236963B323692068C01A6369F6B2984293
:104F4000374604DB2146284600F028F928BBA36831
:104F5000013BA36023685A1C22601E706369013004
:104F6000984204D0A389DB0719D50A2E17D1214610
:104F7000284600F013F990B10FE00B4B9C4201D191
:104F8000AC68D0E7094B9C4208BFEC68CBE72146F0
:104F9000284600F00DF80028CCD04FF0FF373846F7
:104FA000F8BD00BF485C0008685C0008285C000889
:104FB000324B70B51D6806460C4625B1AB6913B976
:104FC000284600F055F92E4B9C420FD16C68B4F97D
:104FD0000C309AB215072CD4D00611D409223260B5
:104FE00043F04003A3814FF0FF3070BD254B9C423E
:104FF00001D1AC68EBE7244B9C4208BFEC68E6E7C4
:10500000510712D5616B41B104F14403994202D0BA
:105010003046FFF743FE00236363A38923F0240394
:10502000A3810023636023692360A38943F00803FD
:10503000A38123694BB9A38903F42073B3F5007FDF
:1050400003D02146304600F0C1F9A28912F00103D5
:105050000CD00023A36063695B42A361236953B949
:10506000B4F90C3013F08000BAD170BD920758BF6C
:105070006369A360F2E70020F7E700BF800100202A
:10508000485C0008685C0008285C00088A892DE9F3
:10509000F041054610070C465AD44B68002B05DC3E
:1050A0000B6C002B02DC0020BDE8F081E66A002ECC
:1050B000F9D0002312F480522F682B6033D0606D3A
:1050C000A3895A0705D56368C01A636B0BB1236CBB
:1050D000C01A00230246E66A216A2846B047431CEC
:1050E000A38906D129681D294BD82B4ACA40D60767
:1050F00047D500226260D9042269226004D5421C8F
:1051000001D12B6803B96065616B2F600029CAD09B
:1051100004F14403994202D02846FFF7BFFD002066
:105120006063BDE8F081216A01232846B047411C35
:10513000C6D12B68002BC3D01D2B01D0162B01D15B
:105140002F60B0E7A38943F04003A381BDE8F0815D
:105150000F69002FA7D093070E6808BF4B690F6037
:1051600018BF0023A6EB07088B60B8F1000F9ADD8B
:1051700043463A46216AA66A2846B047002807DC1B
:10518000A38943F04003A3814FF0FF30BDE8F081D5
:105190000744A8EB0008E8E70100402038B50B6998
:1051A00005460C46DBB118B183690BB900F060F815
:1051B0000C4B9C4209D16C68B4F90C307BB1214690
:1051C0002846BDE83840FFF761BF074B9C4201D13C
:1051D000AC68F1E7054B9C4208BFEC68ECE70020A7
:1051E00038BD00BF485C0008685C0008285C000807
:1051F000014900F0A9B800BF9D510008002310B577
:10520000044603604360836081814366C281036119
:1052100043618361194608225C30FFF737FD054B77
:105220006362054BA362054BE362054B2462236373
:1052300010BD00BFFD5900081F5A0008575A00084A
:105240007B5A000870B54A1E682555430E4605F185
:105250007401FFF771FD044640B1002180E842006F
:105260000C30A06005F16802FFF710FD204670BD0C
:10527000836910B5044633BB8364C3640365124B72
:10528000124A1B688262984204BF0123836100F0C6
:105290001FF86060204600F01BF8A060204600F078
:1052A00017F80022E06004216068FFF7A7FF0122E1
:1052B0000921A068FFF7A2FF02221221E068FFF790
:1052C0009DFF0123A36110BD245C0008F15100087B
:1052D000F8B51C4B1E68B369074613B93046FFF793
:1052E000C7FF4836B4687368013B03D5336833B1F0
:1052F0003668F7E7B4F90C506DB16834F4E704216F
:105300003846FFF79FFF30600028F1D10C233B6047
:1053100004462046F8BD4FF6FF73E3810123A381C5
:1053200065662560A560656025616561A5610822E7
:10533000294604F15C00FFF7A9FC6563A563A56439
:10534000E564E6E7245C00082DE9F84380468946D9
:1053500000F14804002614B93046BDE8F883A5687A
:105360006768013F01D52468F5E7AB89012B07D9B0
:10537000B5F90E30013303D029464046C8470643ED
:105380006835EEE770B50E46B1F90E10002990B001
:1053900014461D4607DA00232B60B3891A0610D481
:1053A0004FF480630EE001AA00F08EFB0028F2DBD0
:1053B000029A02F47042A2F500535A425A412A60FE
:1053C000EEE740230020236010B070BD8B8973B5D9
:1053D0009D0706460C4607D504F147032360236169
:1053E0000123636102B070BD01AB6A46FFF7CAFFDB
:1053F000009905463046FFF79FFC48B9B4F90C30D8
:105400009A05EFD423F0030343F00203A381E3E7FB
:105410000D4BB362A389206043F08003A381009BFE
:105420006361019B20615BB1B4F90E10304600F05E
:105430005DFB28B1A38923F0030343F00103A3819B
:10544000A3891D43A581CDE7F1510008704770473E
:105450009368013B002B10B4936009DA9469A3426E
:1054600002DBCBB20A2B03D15DF8044BFFF74EBD34
:105470001368581C10601970C8B25DF8044B70476F
:10548000F8B506460F461446D518AC4201D10020A7
:1054900007E03A4614F8011B3046FFF7D9FF431CDA
:1054A000F3D1F8BD2DE9F04F9DB00C46174603939C
:1054B000064618B183690BB9FFF7DAFE7C4B9C42B4
:1054C00057D17468A38918075DD52369002B5AD07A
:1054D0000023099320238DF8293030238DF82A30BA
:1054E0004FF0010BB846454615F8013B002B55D14E
:1054F000B8EB070A0BD053463A4621463046FFF731
:10550000BFFF013000F0C480099B5344099398F811
:105510000030002B00F0BC8000234FF0FF320493DA
:105520000793059206938DF853301A930522297834
:105530006048FAF74DFE05F10108049B002831D1BF
:10554000D90644BF20228DF853201A0744BF2B22CE
:105550008DF853202A782A2A2CD0079A00210A2075
:10556000A846013598F80030303B092B6DD971B34E
:1055700026E0514B9C4201D1B468A3E74F4B9C42BB
:1055800008BFF4689EE721463046FFF711FD00286A
:105590009ED04FF0FF301DB0BDE8F08F252BA7D077
:1055A000A846A0E7434A801A0BFA00F0184304907B
:1055B0004546BBE7039A111D12680391002A01DBDF
:1055C000079204E0524243F002030792049398F8D2
:1055D00000302E2B10D198F801302A2B08F1010150
:1055E00037D1039B1A1D1B680392002BB8BF4FF0E5
:1055F000FF3308F102080593314D98F8001003229B
:105600002846FAF7E5FD40B14023401B03FA00F0BD
:10561000049B0343049308F1010898F800102948FB
:105620008DF82810062208F10107FAF7D1FD0028AD
:1056300034D0254B03BB039B073323F00703083308
:105640000393099B4B4409934CE700FB0232012171
:1056500086E70023059318460A258846013198F805
:105660000020303A092A03D9002BC5D00590C3E7A2
:1056700005FB00200123F0E703AB00932246134B08
:1056800004A93046AFF30080B0F1FF3F8146D8D186
:10569000A3895B063FF57DAF09987CE703AB0093D8
:1056A00022460A4B04A9304600F088F8ECE700BF18
:1056B000485C0008885C0008685C0008285C0008FA
:1056C0008E5C0008925C0008000000008154000815
:1056D0002DE9F04791461F468A680B69DDF8208066
:1056E0009342B8BF1346C9F8003091F843200646EC
:1056F0000C4612B10133C9F800302368990642BF45
:10570000D9F800300233C9F80030256815F00605D5
:1057100007D104F1190AE368D9F800209B1A9D42C9
:1057200029DB94F843302268003318BF0123920626
:105730002ED404F1430239463046C047013021D00F
:105740002368E568D9F8002003F00603042B08BF9E
:10575000AD1AA36822690CBF25EAE57500259342BE
:10576000C4BF9B1AED184FF000091A344D451BD1E8
:105770000020BDE8F0870123524639463046C04735
:10578000013003D14FF0FF30BDE8F0870135C2E7AB
:10579000E1185A1C302081F84300224494F8451047
:1057A00082F843100233C4E70123224639463046CB
:1057B000C0470130E6D009F10109D7E72DE9F043F0
:1057C00017460A7E85B06E2A984606460C460C9B04
:1057D00001F1430E00F0BC801AD8632A2ED00AD8FB
:1057E000002A00F0C880582A00F08A8004F142059F
:1057F00084F842202AE0642A01D0692AF6D121687F
:105800001A6811F0800F23D0111D1960136827E06A
:10581000732A00F0B48008D86F2A2AD0702AE5D104
:105820000A6842F020020A6003E0752A21D0782A33
:10583000DCD1782284F845206E4964E01A6801F1D1
:105840004205111D1960136884F842300123A3E05A
:1058500011F0400F02F104011960D7D0B2F9003005
:10586000002B03DA2D225B4284F8432062490A228E
:1058700017E02068196810F0800F03D0081D186029
:105880000B6806E010F0400F01F104001860F7D03B
:105890000B8859496F2A14BF0A220822002084F875
:1058A00043006568A560002DC0F29C80206820F050
:1058B00004002060002B3FD1002D40F095807546FC
:1058C000082A0BD12368DA0708D5236962689A424F
:1058D000DEBF302305F8013C05F1FF35AEEB0503D3
:1058E0002361CDF800803B4603AA21463046FFF7EE
:1058F000EFFE013055D14FF0FF3005B0BDE8F08329
:1059000081F845203C492268186812F0800F00F1A8
:1059100004051D6001D0036802E05506FBD503882D
:10592000D00744BF42F0200222601BB9226822F057
:10593000200222601022B1E77546B3FBF2F002FBB1
:105940001033CB5C05F8013D03460028F5D1B7E7DD
:1059500008681A68496910F0800F04D0101D18609B
:105960001368196007E010F0400F02F1040018609E
:105970001368F6D01980002323617546B1E71A68D1
:10598000111D19601568626800212846FAF720FC8D
:1059900008B1401B606063682361002384F84330D2
:1059A0009FE723692A4639463046C0470130A2D0D6
:1059B00023689B0707D5002504F11909E368039ABA
:1059C0009B1A9D4205DBE068039B9842B8BF1846CE
:1059D00093E701234A4639463046C04701308AD012
:1059E0000135EBE7002BA7D10B7884F8423004F1A6
:1059F000420565E7AA5C0008995C000810B50C46F2
:105A0000B1F90E1000F094F80028ABBF636DA389C4
:105A10001B1823F48053ACBF6365A38110BD2DE92F
:105A2000F0411F468B89DB0505460C46164605D519
:105A300002230022B1F90E1000F068F8A389B4F92E
:105A40000E1023F48053A38132463B462846BDE81E
:105A5000F04100F017B810B50C46B1F90E1000F087
:105A600055F8431CA38915BF606523F4805343F4A4
:105A70008053A38118BFA38110BDB1F90E1000F0AF
:105A800013B8000038B5074C0546084611460022F9
:105A900022601A46FEF768FD431C02D1236803B159
:105AA0002B6038BD285B002038B5064C0023054626
:105AB00008462360FEF780FD431C02D1236803B132
:105AC0002B6038BD285B002038B5074C0023054605
:105AD000084611462360FEF772FD431C02D123687D
